{
  "contractName": "Proposal",
  "abi": [
    {
      "inputs": [
        {
          "name": "_numOutcomes",
          "type": "uint8"
        }
      ],
      "payable": false,
      "stateMutability": "nonpayable",
      "type": "constructor"
    },
    {
      "constant": false,
      "inputs": [
        {
          "name": "_toOutcome",
          "type": "uint8"
        },
        {
          "name": "_amountToStake",
          "type": "uint256"
        }
      ],
      "name": "stake",
      "outputs": [],
      "payable": false,
      "stateMutability": "nonpayable",
      "type": "function"
    },
    {
      "constant": true,
      "inputs": [],
      "name": "winningOutcome",
      "outputs": [
        {
          "name": "_winningOutcome",
          "type": "uint8"
        }
      ],
      "payable": false,
      "stateMutability": "view",
      "type": "function"
    }
  ],
  "bytecode": "0x608060405234801561001057600080fd5b506040516020806102ef833981018060405281019080805190602001909291905050508060ff16600181610044919061004b565b505061009e565b815481835581811115610072578183600052602060002091820191016100719190610077565b5b505050565b61009b91905b80821115610097576000808201600090555060010161007d565b5090565b90565b610242806100ad6000396000f30060806040526004361061004c576000357c0100000000000000000000000000000000000000000000000000000000900463ffffffff1680639b34ae0314610051578063dd752e5514610082575b600080fd5b34801561005d57600080fd5b506100666100bc565b604051808260ff1660ff16815260200191505060405180910390f35b34801561008e57600080fd5b506100ba600480360381019080803560ff16906020019092919080359060200190929190505050610138565b005b6000806000809150600090505b6001805490508160ff161015610133578160018260ff168154811015156100ec57fe5b906000526020600020016000015411156101265760018160ff1681548110151561011257fe5b906000526020600020016000015491508092505b80806001019150506100c9565b505090565b60008060003373ffffffffffffffffffffffffffffffffffffffff1673ffffffffffffffffffffffffffffffffffffffff16815260200190815260200160002090508060010160009054906101000a900460ff168061019f57506001805490508360ff1610155b156101a957610211565b60018160010160006101000a81548160ff021916908315150217905550828160010160016101000a81548160ff021916908360ff1602179055508160018460ff168154811015156101f657fe5b90600052602060002001600001600082825401925050819055505b5050505600a165627a7a7230582068733ce3527dba6ccf98d3a22ec9801a0e4da9b4baf75389cb6efeb3573a4f790029",
  "source": "pragma solidity ^0.4.0; // Solidity version this contract was written against, for compatability purposes\n\n// A contract with multiple outcomes, one of which is funded by a vote-with-your-money race\ncontract Proposal {\n\n  // Funder data type\n  struct Funder {\n    uint amountStaked; // The amount a user is willing to stake for their outcome\n    bool isStaked;     // Is this user already staked on an outcome?\n    uint8 outcome;     // The index of the Outcome staked against\n  }\n  // Outcome data type\n  struct Outcome {\n    uint totalStaked; // The total amount staked for this outcome\n  }\n\n  mapping(address => Funder) funders; // An array of all wallet addresses mapped to Player structs\n  Outcome[] outcomes; // An array of Outcomes and the total staked against each\n\n  // Create a new Play with $(_numOutcomes) different outcomes.\n  constructor(uint8 _numOutcomes) public {\n    outcomes.length = _numOutcomes;\n  }\n\n  // Give a stake to outcome $(toOutcome).\n  function stake(uint8 _toOutcome, uint _amountToStake) public {\n    Funder storage sender = funders[msg.sender];\n    // If Funder is already staked or they staked for an invalid outcome, cancel transaction.\n    if (sender.isStaked || _toOutcome >= outcomes.length) return;\n    // Flag this Funder as staked.\n    sender.isStaked = true;\n    // Set the outcome that this Funder staked against.\n    sender.outcome = _toOutcome;\n    // Increment the outcome's stake by the amount the Funder staked.\n    outcomes[_toOutcome].totalStaked += _amountToStake;\n  }\n\n  // Get the current winning outcome.\n  function winningOutcome() public view returns (uint8 _winningOutcome) {\n    uint256 winningStake = 0;\n    // Loop through the possible outcomes and find the one with the highest stake.\n    for (uint8 x = 0; x < outcomes.length; x++)\n      if (outcomes[x].totalStaked > winningStake) {\n        // Store highest stake.\n        winningStake = outcomes[x].totalStaked;\n        // Return winning outcome index.\n        _winningOutcome = x;\n      }\n  }\n}\n",
  "sourcePath": "/Users/tommy/code/hyperfund/contracts/Proposal.sol",
  "compiler": {
    "name": "solc",
    "version": "0.4.24+commit.e67f0147.Emscripten.clang"
  },
  "schemaVersion": "2.0.1",
  "updatedAt": "2018-08-01T22:53:34.020Z"
}